:100000000C9424010C9441010C9441010C94410185
:100010000C9441010C9441010C9441010C94410158
:100020000C9441010C9441010C9441010C94120276
:100030000C9441010C9441010C9441010C94410138
:100040000C9441010C9441010C9441010C94410128
:100050000C9441010C9441010C9441010C94410118
:100060000C9441010C944101000000000000005F6D
:1000700000000007000700147F147F14242A7F2A41
:10008000122313086462364955225000050300000C
:10009000001C2241000041221C0014083E081408E4
:1000A000083E0808005030000008080808080060F2
:1000B00060000020100804023E5149453E00427F86
:1000C000400042615149462141454B311814127F8D
:1000D0001027454545393C4A494930017109050316
:1000E0003649494936064949291E0036360000007E
:1000F0005636000008142241001414141414004150
:100100002214080201510906324979413E7E11113B
:10011000117E7F494949363E414141227F4141227A
:100120001C7F494949417F090909013E4149497AF2
:100130007F0808087F00417F41002040413F017F48
:10014000081422417F404040407F020C027F7F0420
:1001500008107F3E4141413E7F090909063E415159
:10016000215E7F09192946464949493101017F012C
:10017000013F4040403F1F2040201F3F4038403F4C
:100180006314081463070870080761514945430068
:100190007F41410002040810200041417F00040219
:1001A0000102044040404040000102040020545439
:1001B00054787F48444438384444442038444448C0
:1001C0007F3854545418087E0901020C5252523E92
:1001D0007F0804047800447D40002040443D007FB7
:1001E0001028440000417F40007C041804787C08FB
:1001F00004047838444444387C1414140808141453
:10020000187C7C080404084854545420043F44409B
:10021000203C4040207C1C2040201C3C4030403C86
:1002200044281028440C5050503C4464544C440022
:100230000836410000007F00000041360800100829
:10024000081008000000000011241FBECFEFD8E006
:10025000DEBFCDBF11E0A0E0B1E0E4EAF6E102C00C
:1002600005900D92A432B107D9F723E0A4E2B1E0E2
:1002700001C01D92A238B207E1F70E9413060C9448
:10028000500B0C940000E1E8F0E0808188608083EE
:100290008081846080838AE698E1909389008093CE
:1002A0008800EFE6F0E08081826080837894089592
:1002B000809144019091450120914301281719062E
:1002C00010F4809343018DE580930B0183E58093C7
:1002D0000A0189E4809309018FE38093080185E393
:1002E000809307018BE28093060181E280930501F0
:1002F00087E18093040181E090E090930101809375
:100300000001109246010895FC01DB0180818111FA
:1003100004C083E58C938DE5808340818C914435C6
:1003200028F024E143E56AE00C947E0524E1811184
:10033000FACF81E08C9324E14081F5CFFC01DB0111
:100340008081811104C083E58C938DE58083408199
:100350008C91443528F025E243E56FE20C947E054C
:1003600025E28111FACF81E08C9325E24081F5CF1F
:10037000FB01DC012C9180910201281718F090817B
:100380008917D0F490E030E0AC014C5F5F4F42172A
:1003900053073CF460814F5F5F4F6417150661F0AF
:1003A0005CF0AC0145505109241735076CF00497F7
:1003B00020812817190644F480910301883120F424
:1003C000109242010C9458010895FB01DC012C911C
:1003D00080910201281718F090818917D0F490E0DD
:1003E00030E0AC014C5F5F4F421753073CF4608133
:1003F0004F5F5F4F6417150661F05CF0AC0145502C
:100400005109241735076CF0049720812817190625
:1004100044F480910301823220F0109242010C9446
:10042000580108951F920F920FB60F9211242F9327
:100430003F934F935F936F937F938F939F93AF936C
:10044000BF93EF93FF9310928500109284009091D8
:100450004201809146018F5F992309F4DFC08A3001
:1004600008F0C9C080934601809103019091470133
:10047000992309F4CCC0835080930301803120F488
:10048000109242010E9458011092470180910B0185
:10049000815080930B0180910A01815080930A0161
:1004A0008091090181508093090180910801815058
:1004B000809308018091070181508093070180910A
:1004C000060181508093060180910501815080933F
:1004D0000501809104018150809304010E948503ED
:1004E00020E043E560E080E00E9489042FE240E0E4
:1004F00060E080E00E9489042FE243E56FE280E043
:100500000E9489042FE243E560E083E50E948904AC
:1005100062E081E40E946F04809145018F93809195
:1005200044018F9380E291E09F938F9384E291E066
:100530009F938F930E947F0861E084E291E00E9484
:100540005F042AE043E56AE080E00E9489046AE0F3
:1005500071E08BE091E00E94840168E071E089E045
:1005600091E00E949E0166E071E087E091E00E94C8
:10057000840164E071E085E091E00E949E016AE000
:1005800071E08BE091E00E94B80168E071E089E0E1
:1005900091E00E94E50166E071E087E091E00E9451
:1005A000B80164E071E085E091E00E94E5010F9000
:1005B0000F900F900F900F900F9080914201882321
:1005C00039F045E060910301809102010E949F058E
:1005D0000E947404FF91EF91BF91AF919F918F9111
:1005E0007F916F915F914F913F912F910F900FBE2F
:1005F0000F901F90189510924601809144019091A0
:100600004501019690934501809344012DCF8F5F62
:10061000809303018B3208F439CF32CF80934601A7
:100620008830C0F281E090E020910001309101011A
:10063000232B11F090E080E0909301018093000162
:1006400010924601C7CF29986623A9F02B9A27E07C
:1006500030E090E0AC01022E02C0559547950A9417
:10066000E2F740FF0AC02C9A2D9A2D9821503109AB
:1006700088F7299A08952B98EACF2C98F5CF60E057
:100680000C942303CF93DF93219A229A239A249ADE
:10069000259A2A9A299A8FE39CE90197F1F700C0DD
:1006A00000002A989FEF2AE683E091502040804086
:1006B000E1F700C000002A9A299881E20E943F03D6
:1006C00083E10E943F0386E00E943F0382EC0E9488
:1006D0003F0380E20E943F0389E00E943F0380E8DD
:1006E0000E943F0380E40E943F03C8EFD1E061E035
:1006F00080E00E9423032197D1F788E00E943F0306
:100700008CE0DF91CF910C943F0380E80E943F037F
:1007100080E40E943F031092800310928103E8E876
:10072000F1E088EF91E0DF019C011D922150304003
:10073000E1F70895811103C084E20C943F0380E245
:10074000FCCF962F969596959695E82FF0E084E548
:10075000989FE00DF11D1124E857FE4F208167702E
:1007600081E090E001C0880F6A95EAF7442319F010
:10077000282B2083089580952823FBCF8F929F926A
:10078000AF92BF92DF92EF92FF920F931F93CF939E
:10079000DF9300D000D00F92CDB7DEB7E82FF62E52
:1007A00080320CF44DC0E05285E0E802B001112423
:1007B00068597F4F45E050E0CE0101960E946F08D6
:1007C0008E010F5F1F4F95E0F99E5001112487E0C5
:1007D000F89E40011124E12CEA141B040CF463C0C0
:1007E000809180038F5F9F2D990F990F9F0D890F27
:1007F00080938003843558F08091810310928003A8
:100800008F5F97E0F99E800D112480938103809182
:100810008103803320F010928003109281030F90A7
:100820000F900F900F900F90DF91CF911F910F912C
:10083000FF90EF90DF90BF90AF909F908F900895C2
:10084000EE0FFF0BE85BFE4F0081118101151105D2
:1008500009F0B9CF45E050E068E670E0ADCFED0DAE
:100860005E0D8E2D6F2D0E949906D801A80FB11D27
:100870002C9130E08D2D0E94990602C03595279568
:100880008A95E2F741E020FF40E06E2F852F0E941D
:10089000A103D394E091810350918003D8141904EB
:1008A000F4F2E39499CFD12CF5CFE82F803234F4D1
:1008B000EE0FFF0BE85BFE4F7183608308951F937B
:1008C000CF93DF93162FEC018991811104C0DF9142
:1008D000CF911F910895612F0E94BE03F5CF8093A1
:1008E0008003609381030895CF93DF9380E80E9493
:1008F0003F0380E40E943F03C8E8D1E061E08991B2
:100900000E94230383E0C038D807C1F7DF91CF915D
:1009100008954F925F926F927F928F929F92AF92C3
:10092000BF92CF92DF92EF92FF92CF93DF93CDB73A
:10093000DEB762970FB6F894DEBF0FBECDBF8D87CE
:100940006987F22E481B550BCA01550FAA0BBB0B2A
:1009500089839A83AB83BC83BC01CD010E94BA0713
:1009600069837A838B839C83AF2D4985A41BBB0B42
:10097000CD01BB0FAA0BBB0B8D839E83AF83B887C2
:10098000BC01CD010E94BA076D837E838F83988757
:10099000C980DA80EB80FC80E894F7F84B015C01B9
:1009A000E894B7F8A5019401C701B6010E946A084E
:1009B00087FF02C075016401A701960169817A81F0
:1009C0008B819C810E94170769837A838B839C8328
:1009D0004B015C01A70196016D817E818F81988515
:1009E0000E9417072B013C019D85892F90E0B0E004
:1009F000A0E089839A83AB83BC83BC01CD010E94B4
:100A0000B80769837A838B839C839985892F90E0CB
:100A1000B0E0A0E08D839E83AF83B887BC01CD0199
:100A20000E94B8076D837E838F839887A1E0B0E032
:100A3000BA8BA98B89899A89092E000CAA0BBB0B4A
:100A400089879A87AB87BC87BC01CD010E94BA0712
:100A500069877A878B879C87A70196010E94120776
:100A60001816ACF462960FB6F894DEBF0FBECDBF79
:100A7000DF91CF91FF90EF90DF90CF90BF90AF903C
:100A80009F908F907F906F905F904F9008956D81B1
:100A90007E818F8198850E94890769877A878B87F5
:100AA0009C8769817A818B819C810E9489076D87EF
:100AB0007E878F87988B41E069858D850E94A10391
:100AC000A501940169817A818B819C810E94A6068F
:100AD00069837A838B839C83A30192016D817E81DC
:100AE0008F8198850E94A6066D837E838F83988769
:100AF00089899A8901969A8B898B9CCF0F931F9332
:100B0000CF93DF93C82F162F042FD22F262F0E94AA
:100B100089042D2F402F612F802F0E9489042D2FB3
:100B20004C2F6D2F802F0E948904212F4C2F6D2F69
:100B30008C2FDF91CF911F910F910C9489047F929C
:100B40008F929F92AF92BF92CF92DF92EF92FF92DD
:100B50000F931F93CF93DF93D82EC62EC42FD0E0D0
:100B6000F12CE12C10E000E041E0AC2CA00E6A2D4D
:100B7000BC2EBD0C8B2D0E94A10341E08C2E8C0C51
:100B8000682D9D2C900E892D0E94A10341E0682DB7
:100B90007D2C701A872D0E94A10341E06A2D8D2CB7
:100BA0008C1A882D0E94A10341E0AC2CA01A6A2D5A
:100BB000882D0E94A10341E08C2C8C1A682D872D72
:100BC0000E94A10341E0682D892D0E94A10341E00C
:100BD0006A2D8B2D0E94A1031E141F045CF00F5F71
:100BE0001F4FC801880F991F0196E80EF91E1E14A9
:100BF0001F043CF42197CE01880F991F0196E81A33
:100C0000F90AC017D1070CF0AFCFDF91CF911F9138
:100C10000F91FF90EF90DF90CF90BF90AF909F909B
:100C20008F907F90089520982798F8940E94430110
:100C30000E9442030E948503D1E089E1F82EC1E0C1
:100C400008E111E0189951C00E94850320E043E5B6
:100C500060E080E00E9489042FE240E060E080E0F4
:100C60000E9489042FE243E56FE280E00E9489043C
:100C70002FE243E560E083E50E9489046FE08AE0AB
:100C80000E946F048091000190910101892B59F01D
:100C90006CE071E084E291E00E94780861E084E217
:100CA00091E00E945F04809143018823D9F068E1BC
:100CB0008AE00E946F04809143011F928F931F93DB
:100CC0000F9384E291E09F938F930E947F0861E0ED
:100CD00084E291E00E945F040F900F900F900F90BC
:100CE0000F900F900E947404ADCF1899FECFD0934F
:100CF0004201109246011092450110924401F09277
:100D0000030180914201882309F49ECF189B0AC0F9
:100D10001899FECF10924201189BFECF1899FECF72
:100D2000C09342014F9BEDCFC09347014F99FECF37
:100D3000E8CF991B79E004C0991F961708F0961B1D
:100D4000881F7A95C9F7809508955058BB27AA2720
:100D50000E94BD060C9430080E94220838F00E94C0
:100D6000290820F039F49F3F19F426F40C941F0849
:100D70000EF4E095E7FB0C941908E92F0E94410856
:100D800058F3BA17620773078407950720F079F4C0
:100D9000A6F50C9463080EF4E0950B2EBA2FA02D47
:100DA0000B01B90190010C01CA01A0011124FF2718
:100DB000591B99F0593F50F4503E68F11A16F04013
:100DC000A22F232F342F4427585FF3CF4695379512
:100DD0002795A795F0405395C9F77EF41F16BA0BD7
:100DE000620B730B840BBAF09150A1F0FF0FBB1F85
:100DF000661F771F881FC2F70EC0BA0F621F731FCE
:100E0000841F48F4879577956795B795F7959E3F2A
:100E100008F0B0CF9395880F08F09927EE0F9795BB
:100E2000879508950E94F50708F481E008950E94CF
:100E30002B070C9430080E94290858F00E942208C1
:100E400040F029F45F3F29F00C94190851110C94DB
:100E500064080C941F080E94410868F39923B1F3B9
:100E6000552391F3951B550BBB27AA2762177307D0
:100E7000840738F09F5F5F4F220F331F441FAA1F64
:100E8000A9F335D00E2E3AF0E0E832D09150504020
:100E9000E695001CCAF72BD0FE2F29D0660F771FCE
:100EA000881FBB1F261737074807AB07B0E809F0B4
:100EB000BB0B802DBF01FF2793585F4F3AF09E3F39
:100EC000510578F00C9419080C9464085F3FE4F322
:100ED000983ED4F3869577956795B795F7959F5F7C
:100EE000C9F7880F911D9695879597F90895E1E0C8
:100EF000660F771F881FBB1F621773078407BA0727
:100F000020F0621B730B840BBA0BEE1F88F7E09581
:100F100008950E94490888F09F5798F0B92F9927A3
:100F2000B751B0F0E1F0660F771F881F991F1AF0D4
:100F3000BA95C9F714C0B13091F00E946308B1E0CE
:100F400008950C946308672F782F8827B85F39F0CD
:100F5000B93FCCF3869577956795B395D9F73EF46D
:100F600090958095709561957F4F8F4F9F4F089515
:100F7000E89409C097FB3EF4909580957095619533
:100F80007F4F8F4F9F4F9923A9F0F92F96E9BB27E9
:100F90009395F695879577956795B795F111F8CF65
:100FA000FAF4BB0F11F460FF1BC06F5F7F4F8F4FD0
:100FB0009F4F16C0882311F096E911C0772321F0C6
:100FC0009EE8872F762F05C0662371F096E8862F5E
:100FD00070E060E02AF09A95660F771F881FDAF7B5
:100FE000880F9695879597F90895990F0008550FE2
:100FF000AA0BE0E8FEEF16161706E807F907C0F09F
:1010000012161306E407F50798F0621B730B840BA6
:10101000950B39F40A2661F0232B242B252B21F480
:1010200008950A2609F4A140A6958FEF811D811D20
:10103000089597F99F6780E870E060E008959FEF5A
:1010400080EC089500240A9416161706180609065F
:10105000089500240A94121613061406050608952E
:10106000092E0394000C11F4882352F0BB0F40F4B6
:10107000BF2B11F460FF04C06F5F7F4F8F4F9F4FF6
:10108000089557FD9058440F551F59F05F3F71F078
:101090004795880F97FB991F61F09F3F79F08795DF
:1010A0000895121613061406551FF2CF4695F1DF68
:1010B00008C0161617061806991FF1CF86957105F8
:1010C000610508940895E894BB2766277727CB012C
:1010D00097F908950E94F50708F48FEF0895FB0132
:1010E000DC0102C005900D9241505040D8F70895A0
:1010F000FB01DC0101900D920020E1F70895AEE0C4
:10110000B0E0E5E8F8E00C94270B0D891E8986E035
:101110008C831A8309838FEF9FE79E838D83AE01B3
:10112000475E5F4F6F89788DCE0101960E94A208BD
:101130002F813885020F131FF80110822E96E4E0EC
:101140000C94430BAFE0B0E0E8EAF8E00C94190B24
:101150007C013B018A01DC0117961C921E921697B6
:1011600013968C9181FFBEC19AE0292EFE01319623
:101170004F01D70113969C91F30193FD859193FF45
:1011800081913F01882309F444C1853239F493FDEC
:10119000859193FF81913F01853229F4B70190E059
:1011A0000E948B0AE6CFB12C412C512CBFE1B51522
:1011B00038F08B3209F188F4803201F1833221F169
:1011C00057FC3AC020ED280F2A3040F556FE1FC0CC
:1011D000B29C200D1124B22E06C08D3291F08033C6
:1011E00079F7689450F8F30193FD859193FF81910D
:1011F0003F018111DBCF20C0689451F8689452F808
:10120000F2CF689453F8EFCF689454F8ECCF429C37
:10121000200D1124422E689455F8E5CF8E3229F422
:1012200056FCF7C0689456F8DECF8C3619F46894F3
:1012300057F8D9CF8836B9F2982F9F7D95549330BF
:10124000C0F0833681F18337A1F1833509F05BC0AB
:10125000D801CD90DD908D016B2D70E056FC02C061
:101260006FEF7FEFC6010E94750A5C01689457F822
:101270000AC00C5F1F4FEFE3E983AA24A394B12CAB
:101280006401E89457F853FE29C0342CA114B1042A
:1012900051F5332009F46DCFB70180E290E00E9450
:1012A0008B0A3A94F6CFD8018C9189830E5F1F4F39
:1012B000E4CFF801C190D1908F016B2D70E056FC06
:1012C00002C06FEF7FEFC6010E94800A5C01D9CF98
:1012D000B70180E290E00E948B0A4A944A141B04F2
:1012E00009F0B0F7D2CFF60157FC859157FE8191F6
:1012F0006F01B70190E00E948B0A31103A94B1E07F
:10130000AB1AB108C3CF843619F0893609F071C021
:10131000F80157FE67C061917191819191918F01A0
:10132000E52DEF76DE2E97FF09C09095809570959C
:1013300061957F4F8F4F9F4F6894D7F82AE030E038
:10134000A4010E94BB0AC82EC818AC2C5D2CD6FE86
:101350000CC0E89450F8CB1440F4D4FE05C0D2FC85
:1013600003C05D2D5E7E552EAB2C54FE93C0FE0156
:10137000EC0DF11D8081803309F085C0652D697EFB
:10138000562E752D7870372E53FC93C050FE8DC0AD
:10139000BC2CA41410F4B40CBA1854FE90C0B701BD
:1013A00080E390E00E948B0A52FE07C088E751FC60
:1013B00088E590E0B7010E948B0ACB1408F48BC03B
:1013C000CA94D12C8FEFC81AD80AC80CD91CD601E0
:1013D0008E916D01B70190E00E948B0A8C149D04E0
:1013E000B1F757CF61917191072E000C880B990BC3
:1013F00096CFD52CE894D4F82AE0853729F1F52D3D
:10140000F97FDF2E8037A1F058F48835A1F08F36B0
:10141000D1F0F701868197812F96E2E10C94350B8C
:101420008837B9F7D4FE02C06894D2F820E10CC026
:101430006894D4F8F7CF54FE03C02F2F2660D22E25
:1014400020E132E002C028E030E0F801D7FE15C00C
:1014500041915191619171914C875D876E877F8732
:101460008F01A4016C857D858E859F850E94BB0AB6
:10147000C82EC818E894D7F868CF81919191AC0133
:1014800070E060E0E9CF52FC02C0A3947ACFA3944D
:10149000A39477CF852D867809F473CFF6CFB70163
:1014A00080E290E00E948B0AA394A414C0F3312C34
:1014B00074CF342C3A18A41408F46FCFF8CF852DCC
:1014C000867809F47ACF8BE251FE80E257FC8DE2F8
:1014D000B70190E070CFB70180E390E00E948B0AE3
:1014E000BA946BCF8FEF9FEF97CFFC0105906150BF
:1014F00070400110D8F7809590958E0F9F1F08952A
:10150000FC016150704001900110D8F780959095D2
:101510008E0F9F1F08950F931F93CF93DF93182F64
:10152000092FEB018B8181FD09C01FEF0FEF812F88
:10153000902FDF91CF911F910F91089582FF14C0DA
:101540002E813F818C819D81281739073CF4E881E9
:10155000F981CF0101969983888310838E819F81C1
:1015600001969F838E83E3CFE885F985812F0995C6
:10157000892BA1F3DACFFA01AA27283051F12031C3
:1015800081F1E8946F936E7F6E5F7F4F8F4F9F4F17
:10159000AF4FB1E03ED0B4E03CD0670F781F891F59
:1015A0009A1FA11D680F791F8A1F911DA11D6A0F27
:1015B000711D811D911DA11D20D009F468943F91DA
:1015C0002AE0269F11243019305D3193DEF6CF01D9
:1015D0000895462F4770405D4193B3E00FD0C9F79F
:1015E000F6CF462F4F70405D4A3318F0495D31FD0C
:1015F0004052419302D0A9F7EACFB4E0A69597955F
:10160000879577956795BA95C9F700976105710534
:1016100008959B01AC010A2E06945795479537957E
:101620002795BA95C9F7620F731F841F951FA01DD8
:1016300008952F923F924F925F926F927F928F9276
:101640009F92AF92BF92CF92DF92EF92FF920F9351
:101650001F93CF93DF93CDB7DEB7CA1BDB0B0FB65B
:10166000F894DEBF0FBECDBF09942A883988488818
:101670005F846E847D848C849B84AA84B984C884AE
:10168000DF80EE80FD800C811B81AA81B981CE0FA5
:10169000D11D0FB6F894DEBF0FBECDBFED0108958A
:0416A000F894FFCFEC
:1016A4000100141417212B353F49535D5052455303
:1016B400532053544152540042455354202564004E
:0416C4002530640069
:00000001FF
